{"contractName":"Crowdfunding","abi":[{"anonymous":false,"inputs":[{"indexed":false,"internalType":"uint256","name":"campaignId","type":"uint256"}],"name":"CampaignCancelled","type":"event"},{"anonymous":false,"inputs":[{"indexed":false,"internalType":"uint256","name":"campaignId","type":"uint256"},{"indexed":false,"internalType":"string","name":"name","type":"string"},{"indexed":false,"internalType":"uint256","name":"goal","type":"uint256"},{"indexed":false,"internalType":"uint256","name":"deadline","type":"uint256"}],"name":"CampaignCreated","type":"event"},{"anonymous":false,"inputs":[{"indexed":false,"internalType":"uint256","name":"campaignId","type":"uint256"},{"indexed":false,"internalType":"address","name":"contributor","type":"address"},{"indexed":false,"internalType":"uint256","name":"amount","type":"uint256"}],"name":"ContributionReceived","type":"event"},{"anonymous":false,"inputs":[{"indexed":false,"internalType":"uint256","name":"campaignId","type":"uint256"},{"indexed":false,"internalType":"uint256","name":"amount","type":"uint256"}],"name":"FundsWithdrawn","type":"event"},{"inputs":[],"name":"campaignCount","outputs":[{"internalType":"uint256","name":"","type":"uint256"}],"stateMutability":"view","type":"function","constant":true},{"inputs":[{"internalType":"uint256","name":"","type":"uint256"}],"name":"campaigns","outputs":[{"internalType":"string","name":"name","type":"string"},{"internalType":"string","name":"description","type":"string"},{"internalType":"uint256","name":"goal","type":"uint256"},{"internalType":"uint256","name":"deadline","type":"uint256"},{"internalType":"uint256","name":"amountCollected","type":"uint256"},{"internalType":"address","name":"owner","type":"address"},{"internalType":"bool","name":"active","type":"bool"}],"stateMutability":"view","type":"function","constant":true},{"inputs":[{"internalType":"string","name":"_name","type":"string"},{"internalType":"string","name":"_description","type":"string"},{"internalType":"uint256","name":"_goal","type":"uint256"},{"internalType":"uint256","name":"_durationInDays","type":"uint256"}],"name":"createCampaign","outputs":[{"internalType":"uint256","name":"","type":"uint256"}],"stateMutability":"nonpayable","type":"function"},{"inputs":[{"internalType":"uint256","name":"_campaignId","type":"uint256"}],"name":"contributeToCampaign","outputs":[],"stateMutability":"payable","type":"function","payable":true},{"inputs":[{"internalType":"uint256","name":"_campaignId","type":"uint256"}],"name":"withdrawFunds","outputs":[],"stateMutability":"nonpayable","type":"function"},{"inputs":[{"internalType":"uint256","name":"_campaignId","type":"uint256"}],"name":"getCampaignDetails","outputs":[{"internalType":"string","name":"name","type":"string"},{"internalType":"string","name":"description","type":"string"},{"internalType":"uint256","name":"goal","type":"uint256"},{"internalType":"uint256","name":"deadline","type":"uint256"},{"internalType":"uint256","name":"amountCollected","type":"uint256"},{"internalType":"address","name":"owner","type":"address"},{"internalType":"bool","name":"active","type":"bool"}],"stateMutability":"view","type":"function","constant":true},{"inputs":[{"internalType":"uint256","name":"_campaignId","type":"uint256"},{"internalType":"address","name":"_contributor","type":"address"}],"name":"getContribution","outputs":[{"internalType":"uint256","name":"","type":"uint256"}],"stateMutability":"view","type":"function","constant":true},{"inputs":[{"internalType":"uint256","name":"_campaignId","type":"uint256"}],"name":"cancelCampaign","outputs":[],"stateMutability":"nonpayable","type":"function"}],"bytecode":"0x608060405234801561000f575f80fd5b50610dd78061001d5f395ff3fe608060405260043610610079575f3560e01c80637274e30d1161004c5780637274e30d1461010b578063a318f2691461012e578063d993de621461014d578063e081dbf91461016c575f80fd5b80630b7ef89b1461007d578063141961bc14610092578063155dd5ee146100cd57806345598b4a146100ec575b5f80fd5b61009061008b3660046109b5565b61018b565b005b34801561009d575f80fd5b506100b16100ac3660046109b5565b6102ab565b6040516100c49796959493929190610a0f565b60405180910390f35b3480156100d8575f80fd5b506100906100e73660046109b5565b610400565b3480156100f7575f80fd5b506100906101063660046109b5565b6105c3565b348015610116575f80fd5b5061012060015481565b6040519081526020016100c4565b348015610139575f80fd5b50610120610148366004610b06565b610696565b348015610158575f80fd5b506100b16101673660046109b5565b610809565b348015610177575f80fd5b50610120610186366004610b75565b61098b565b5f8181526020819052604090206005810154600160a01b900460ff166101cc5760405162461bcd60e51b81526004016101c390610bae565b60405180910390fd5b5f34116102275760405162461bcd60e51b815260206004820152602360248201527f436f6e747269627574696f6e206d75737420626520677265617465722074686160448201526206e20360ec1b60648201526084016101c3565b34816004015f82825461023a9190610bf2565b9091555050335f9081526006820160205260408120805434929061025f908490610bf2565b90915550506040805183815233602082015234918101919091527f865c884d49c8cecaef108efb20f7d282f26c0f9b0d24dd48e5592d4e02ec658d906060015b60405180910390a15050565b5f602081905290815260409020805481906102c590610c05565b80601f01602080910402602001604051908101604052809291908181526020018280546102f190610c05565b801561033c5780601f106103135761010080835404028352916020019161033c565b820191905f5260205f20905b81548152906001019060200180831161031f57829003601f168201915b50505050509080600101805461035190610c05565b80601f016020809104026020016040519081016040528092919081815260200182805461037d90610c05565b80156103c85780601f1061039f576101008083540402835291602001916103c8565b820191905f5260205f20905b8154815290600101906020018083116103ab57829003601f168201915b50505050600283015460038401546004850154600590950154939491939092506001600160a01b03811690600160a01b900460ff1687565b5f81815260208190526040902060058101546001600160a01b031633146104695760405162461bcd60e51b815260206004820181905260248201527f4f6e6c792063616d706169676e206f776e65722063616e20776974686472617760448201526064016101c3565b6005810154600160a01b900460ff166104945760405162461bcd60e51b81526004016101c390610bae565b806003015442116104e75760405162461bcd60e51b815260206004820152601a60248201527f43616d706169676e20686173206e6f7420656e6465642079657400000000000060448201526064016101c3565b8060020154816004015410156105325760405162461bcd60e51b815260206004820152601060248201526f11dbd85b081b9bdd081c995858da195960821b60448201526064016101c3565b6004810180545f9182905560058301805460ff60a01b19811690915560405191926001600160a01b039091169183156108fc0291849190818181858888f19350505050158015610584573d5f803e3d5ffd5b5060408051848152602081018390527fd66662c0ded9e58fd31d5e44944bcfd07ffc15e6927ecc1382e7941cb7bd24c4910160405180910390a1505050565b5f81815260208190526040902060058101546001600160a01b0316331461062c5760405162461bcd60e51b815260206004820152601e60248201527f4f6e6c792063616d706169676e206f776e65722063616e2063616e63656c000060448201526064016101c3565b6005810154600160a01b900460ff166106575760405162461bcd60e51b81526004016101c390610bae565b60058101805460ff60a01b191690556040518281527f403b6718db13878ac16c27decb08f09d3a10f116c7c25af575ff5bfbc11ae9e69060200161029f565b5f8083116106e65760405162461bcd60e51b815260206004820152601b60248201527f476f616c206d7573742062652067726561746572207468616e2030000000000060448201526064016101c3565b5f82116107355760405162461bcd60e51b815260206004820152601f60248201527f4475726174696f6e206d7573742062652067726561746572207468616e20300060448201526064016101c3565b600180545f918261074583610c3d565b909155505f818152602081905260409020909150806107648882610ca3565b50600181016107738782610ca3565b50600281018590556107888462015180610d5f565b6107929042610bf2565b600382018190555f600483015560058201805460ff60a01b1933166001600160a81b031990911617600160a01b1790556040517f02fe3fddd43aad14ae5c30d5d694f19ecb065dfde85bb591b91e8af1448724d2916107f79185918b918a9190610d76565b60405180910390a15095945050505050565b5f81815260208190526040812060028101546003820154600483015460058401548454606096879690958695869586958695859460018601949093909290916001600160a01b03821691600160a01b900460ff1690879061086990610c05565b80601f016020809104026020016040519081016040528092919081815260200182805461089590610c05565b80156108e05780601f106108b7576101008083540402835291602001916108e0565b820191905f5260205f20905b8154815290600101906020018083116108c357829003601f168201915b505050505096508580546108f390610c05565b80601f016020809104026020016040519081016040528092919081815260200182805461091f90610c05565b801561096a5780601f106109415761010080835404028352916020019161096a565b820191905f5260205f20905b81548152906001019060200180831161094d57829003601f168201915b50505050509550975097509750975097509750975050919395979092949650565b5f828152602081815260408083206001600160a01b03851684526006019091529020545b92915050565b5f602082840312156109c5575f80fd5b5035919050565b5f81518084525f5b818110156109f0576020818501810151868301820152016109d4565b505f602082860101526020601f19601f83011685010191505092915050565b60e081525f610a2160e083018a6109cc565b8281036020840152610a33818a6109cc565b60408401989098525050606081019490945260808401929092526001600160a01b031660a0830152151560c09091015292915050565b634e487b7160e01b5f52604160045260245ffd5b5f82601f830112610a8c575f80fd5b813567ffffffffffffffff80821115610aa757610aa7610a69565b604051601f8301601f19908116603f01168101908282118183101715610acf57610acf610a69565b81604052838152866020858801011115610ae7575f80fd5b836020870160208301375f602085830101528094505050505092915050565b5f805f8060808587031215610b19575f80fd5b843567ffffffffffffffff80821115610b30575f80fd5b610b3c88838901610a7d565b95506020870135915080821115610b51575f80fd5b50610b5e87828801610a7d565b949794965050505060408301359260600135919050565b5f8060408385031215610b86575f80fd5b8235915060208301356001600160a01b0381168114610ba3575f80fd5b809150509250929050565b60208082526016908201527543616d706169676e206973206e6f742061637469766560501b604082015260600190565b634e487b7160e01b5f52601160045260245ffd5b808201808211156109af576109af610bde565b600181811c90821680610c1957607f821691505b602082108103610c3757634e487b7160e01b5f52602260045260245ffd5b50919050565b5f60018201610c4e57610c4e610bde565b5060010190565b601f821115610c9e575f81815260208120601f850160051c81016020861015610c7b5750805b601f850160051c820191505b81811015610c9a57828155600101610c87565b5050505b505050565b815167ffffffffffffffff811115610cbd57610cbd610a69565b610cd181610ccb8454610c05565b84610c55565b602080601f831160018114610d04575f8415610ced5750858301515b5f19600386901b1c1916600185901b178555610c9a565b5f85815260208120601f198616915b82811015610d3257888601518255948401946001909101908401610d13565b5085821015610d4f57878501515f19600388901b60f8161c191681555b5050505050600190811b01905550565b80820281158282048414176109af576109af610bde565b848152608060208201525f610d8e60808301866109cc565b604083019490945250606001529291505056fea26469706673582212206cd63e5bb1e11f3e891573bcc839f9c0a780add76b4b9bb97203846d160623cd64736f6c63430008150033","immutableReferences":{},"source":"// SPDX-License-Identifier: MIT\r\npragma solidity >=0.8.0 <0.9.0;\r\n\r\ncontract Crowdfunding {\r\n    struct Campaign {\r\n        string name;\r\n        string description;\r\n        uint256 goal;\r\n        uint256 deadline;\r\n        uint256 amountCollected;\r\n        address owner;\r\n        bool active;\r\n        mapping(address => uint256) contributions;\r\n    }\r\n\r\n    mapping(uint256 => Campaign) public campaigns;\r\n    uint256 public campaignCount;\r\n    \r\n    event CampaignCreated(uint256 campaignId, string name, uint256 goal, uint256 deadline);\r\n    event ContributionReceived(uint256 campaignId, address contributor, uint256 amount);\r\n    event FundsWithdrawn(uint256 campaignId, uint256 amount);\r\n    event CampaignCancelled(uint256 campaignId);\r\n\r\n    function createCampaign(\r\n        string memory _name,\r\n        string memory _description, \r\n        uint256 _goal,\r\n        uint256 _durationInDays\r\n    ) public returns (uint256) {\r\n        require(_goal > 0, \"Goal must be greater than 0\");\r\n        require(_durationInDays > 0, \"Duration must be greater than 0\");\r\n        \r\n        uint256 campaignId = campaignCount++;\r\n        Campaign storage campaign = campaigns[campaignId];\r\n        \r\n        campaign.name = _name;\r\n        campaign.description = _description;\r\n        campaign.goal = _goal;\r\n        campaign.deadline = block.timestamp + (_durationInDays * 1 days);\r\n        campaign.amountCollected = 0;\r\n        campaign.owner = msg.sender;\r\n        campaign.active = true;\r\n\r\n        emit CampaignCreated(campaignId, _name, _goal, campaign.deadline);\r\n        return campaignId;\r\n    }\r\n\r\n    function contributeToCampaign(uint256 _campaignId) public payable {\r\n        Campaign storage campaign = campaigns[_campaignId];\r\n        require(campaign.active, \"Campaign is not active\");\r\n        require(msg.value > 0, \"Contribution must be greater than 0\");\r\n        \r\n        campaign.amountCollected += msg.value;\r\n        campaign.contributions[msg.sender] += msg.value;\r\n        \r\n        emit ContributionReceived(_campaignId, msg.sender, msg.value);\r\n    }\r\n\r\n    function withdrawFunds(uint256 _campaignId) public {\r\n        Campaign storage campaign = campaigns[_campaignId];\r\n        \r\n        require(msg.sender == campaign.owner, \"Only campaign owner can withdraw\");\r\n        require(campaign.active, \"Campaign is not active\");\r\n        require(block.timestamp > campaign.deadline, \"Campaign has not ended yet\");\r\n        require(campaign.amountCollected >= campaign.goal, \"Goal not reached\");\r\n\r\n        uint256 amount = campaign.amountCollected;\r\n        campaign.amountCollected = 0;\r\n        campaign.active = false;\r\n        \r\n        payable(campaign.owner).transfer(amount);\r\n        emit FundsWithdrawn(_campaignId, amount);\r\n    }\r\n\r\n    function getCampaignDetails(uint256 _campaignId) public view returns (\r\n        string memory name,\r\n        string memory description,\r\n        uint256 goal,\r\n        uint256 deadline,\r\n        uint256 amountCollected,\r\n        address owner,\r\n        bool active\r\n    ) {\r\n        Campaign storage campaign = campaigns[_campaignId];\r\n        return (\r\n            campaign.name,\r\n            campaign.description,\r\n            campaign.goal,\r\n            campaign.deadline,\r\n            campaign.amountCollected,\r\n            campaign.owner,\r\n            campaign.active\r\n        );\r\n    }\r\n\r\n    function getContribution(uint256 _campaignId, address _contributor) public view returns (uint256) {\r\n        return campaigns[_campaignId].contributions[_contributor];\r\n    }\r\n\r\n    function cancelCampaign(uint256 _campaignId) public {\r\n        Campaign storage campaign = campaigns[_campaignId];\r\n        \r\n        require(msg.sender == campaign.owner, \"Only campaign owner can cancel\");\r\n        require(campaign.active, \"Campaign is not active\");\r\n        \r\n        campaign.active = false;\r\n        emit CampaignCancelled(_campaignId);\r\n    }\r\n}\r\n\r\n","sourcePath":"E:\\chanda\\chanda\\contracts\\funding.sol","compiler":{"name":"solc","version":"0.8.21+commit.d9974bed.Emscripten.clang"},"schemaVersion":"3.4.16","updatedAt":"2025-01-08T15:42:53.681Z","networkType":"ethereum","devdoc":{"kind":"dev","methods":{},"version":1},"userdoc":{"kind":"user","methods":{},"version":1}}