{
  "contractName": "Crowdfunding",
  "abi": [
    {
      "anonymous": false,
      "inputs": [
        {
          "indexed": false,
          "internalType": "uint256",
          "name": "campaignId",
          "type": "uint256"
        }
      ],
      "name": "CampaignCancelled",
      "type": "event"
    },
    {
      "anonymous": false,
      "inputs": [
        {
          "indexed": false,
          "internalType": "uint256",
          "name": "campaignId",
          "type": "uint256"
        },
        {
          "indexed": false,
          "internalType": "string",
          "name": "name",
          "type": "string"
        },
        {
          "indexed": false,
          "internalType": "uint256",
          "name": "goal",
          "type": "uint256"
        },
        {
          "indexed": false,
          "internalType": "uint256",
          "name": "deadline",
          "type": "uint256"
        }
      ],
      "name": "CampaignCreated",
      "type": "event"
    },
    {
      "anonymous": false,
      "inputs": [
        {
          "indexed": false,
          "internalType": "uint256",
          "name": "campaignId",
          "type": "uint256"
        },
        {
          "indexed": false,
          "internalType": "address",
          "name": "contributor",
          "type": "address"
        },
        {
          "indexed": false,
          "internalType": "uint256",
          "name": "amount",
          "type": "uint256"
        }
      ],
      "name": "ContributionReceived",
      "type": "event"
    },
    {
      "anonymous": false,
      "inputs": [
        {
          "indexed": false,
          "internalType": "uint256",
          "name": "campaignId",
          "type": "uint256"
        },
        {
          "indexed": false,
          "internalType": "uint256",
          "name": "amount",
          "type": "uint256"
        }
      ],
      "name": "FundsWithdrawn",
      "type": "event"
    },
    {
      "inputs": [],
      "name": "campaignCount",
      "outputs": [
        {
          "internalType": "uint256",
          "name": "",
          "type": "uint256"
        }
      ],
      "stateMutability": "view",
      "type": "function",
      "constant": true
    },
    {
      "inputs": [
        {
          "internalType": "uint256",
          "name": "",
          "type": "uint256"
        }
      ],
      "name": "campaigns",
      "outputs": [
        {
          "internalType": "string",
          "name": "name",
          "type": "string"
        },
        {
          "internalType": "string",
          "name": "description",
          "type": "string"
        },
        {
          "internalType": "uint256",
          "name": "goal",
          "type": "uint256"
        },
        {
          "internalType": "uint256",
          "name": "deadline",
          "type": "uint256"
        },
        {
          "internalType": "uint256",
          "name": "amountCollected",
          "type": "uint256"
        },
        {
          "internalType": "address",
          "name": "owner",
          "type": "address"
        },
        {
          "internalType": "bool",
          "name": "active",
          "type": "bool"
        }
      ],
      "stateMutability": "view",
      "type": "function",
      "constant": true
    },
    {
      "inputs": [
        {
          "internalType": "string",
          "name": "_name",
          "type": "string"
        },
        {
          "internalType": "string",
          "name": "_description",
          "type": "string"
        },
        {
          "internalType": "uint256",
          "name": "_goal",
          "type": "uint256"
        },
        {
          "internalType": "uint256",
          "name": "_durationInDays",
          "type": "uint256"
        }
      ],
      "name": "createCampaign",
      "outputs": [
        {
          "internalType": "uint256",
          "name": "",
          "type": "uint256"
        }
      ],
      "stateMutability": "nonpayable",
      "type": "function"
    },
    {
      "inputs": [
        {
          "internalType": "uint256",
          "name": "_campaignId",
          "type": "uint256"
        }
      ],
      "name": "contributeToCampaign",
      "outputs": [],
      "stateMutability": "payable",
      "type": "function",
      "payable": true
    },
    {
      "inputs": [
        {
          "internalType": "uint256",
          "name": "_campaignId",
          "type": "uint256"
        }
      ],
      "name": "withdrawFunds",
      "outputs": [],
      "stateMutability": "nonpayable",
      "type": "function"
    },
    {
      "inputs": [
        {
          "internalType": "uint256",
          "name": "_campaignId",
          "type": "uint256"
        }
      ],
      "name": "getCampaignDetails",
      "outputs": [
        {
          "internalType": "string",
          "name": "name",
          "type": "string"
        },
        {
          "internalType": "string",
          "name": "description",
          "type": "string"
        },
        {
          "internalType": "uint256",
          "name": "goal",
          "type": "uint256"
        },
        {
          "internalType": "uint256",
          "name": "deadline",
          "type": "uint256"
        },
        {
          "internalType": "uint256",
          "name": "amountCollected",
          "type": "uint256"
        },
        {
          "internalType": "address",
          "name": "owner",
          "type": "address"
        },
        {
          "internalType": "bool",
          "name": "active",
          "type": "bool"
        }
      ],
      "stateMutability": "view",
      "type": "function",
      "constant": true
    },
    {
      "inputs": [
        {
          "internalType": "uint256",
          "name": "_campaignId",
          "type": "uint256"
        },
        {
          "internalType": "address",
          "name": "_contributor",
          "type": "address"
        }
      ],
      "name": "getContribution",
      "outputs": [
        {
          "internalType": "uint256",
          "name": "",
          "type": "uint256"
        }
      ],
      "stateMutability": "view",
      "type": "function",
      "constant": true
    },
    {
      "inputs": [
        {
          "internalType": "uint256",
          "name": "_campaignId",
          "type": "uint256"
        }
      ],
      "name": "cancelCampaign",
      "outputs": [],
      "stateMutability": "nonpayable",
      "type": "function"
    }
  ],
  "bytecode": "0x608060405234801561001057600080fd5b506116a9806100206000396000f3fe60806040526004361061007b5760003560e01c80637274e30d1161004e5780637274e30d14610131578063a318f2691461015c578063d993de6214610199578063e081dbf9146101dc5761007b565b80630b7ef89b14610080578063141961bc1461009c578063155dd5ee146100df57806345598b4a14610108575b600080fd5b61009a60048036038101906100959190610e40565b610219565b005b3480156100a857600080fd5b506100c360048036038101906100be9190610e40565b610375565b6040516100d69796959493929190611131565b60405180910390f35b3480156100eb57600080fd5b5061010660048036038101906101019190610e40565b6104f4565b005b34801561011457600080fd5b5061012f600480360381019061012a9190610e40565b610757565b005b34801561013d57600080fd5b506101466108a8565b60405161015391906112ae565b60405180910390f35b34801561016857600080fd5b50610183600480360381019061017e9190610dad565b6108ae565b60405161019091906112ae565b60405180910390f35b3480156101a557600080fd5b506101c060048036038101906101bb9190610e40565b610a7b565b6040516101d39796959493929190611131565b60405180910390f35b3480156101e857600080fd5b5061020360048036038101906101fe9190610e69565b610c1b565b60405161021091906112ae565b60405180910390f35b600080600083815260200190815260200160002090508060050160149054906101000a900460ff16610280576040517f08c379a00000000000000000000000000000000000000000000000000000000081526004016102779061120e565b60405180910390fd5b600034116102c3576040517f08c379a00000000000000000000000000000000000000000000000000000000081526004016102ba9061124e565b60405180910390fd5b348160040160008282546102d791906113f2565b92505081905550348160060160003373ffffffffffffffffffffffffffffffffffffffff1673ffffffffffffffffffffffffffffffffffffffff168152602001908152602001600020600082825461032f91906113f2565b925050819055507f865c884d49c8cecaef108efb20f7d282f26c0f9b0d24dd48e5592d4e02ec658d823334604051610369939291906112c9565b60405180910390a15050565b60006020528060005260406000206000915090508060000180546103989061152c565b80601f01602080910402602001604051908101604052809291908181526020018280546103c49061152c565b80156104115780601f106103e657610100808354040283529160200191610411565b820191906000526020600020905b8154815290600101906020018083116103f457829003601f168201915b5050505050908060010180546104269061152c565b80601f01602080910402602001604051908101604052809291908181526020018280546104529061152c565b801561049f5780601f106104745761010080835404028352916020019161049f565b820191906000526020600020905b81548152906001019060200180831161048257829003601f168201915b5050505050908060020154908060030154908060040154908060050160009054906101000a900473ffffffffffffffffffffffffffffffffffffffff16908060050160149054906101000a900460ff16905087565b600080600083815260200190815260200160002090508060050160009054906101000a900473ffffffffffffffffffffffffffffffffffffffff1673ffffffffffffffffffffffffffffffffffffffff163373ffffffffffffffffffffffffffffffffffffffff161461059c576040517f08c379a0000000000000000000000000000000000000000000000000000000008152600401610593906111ae565b60405180910390fd5b8060050160149054906101000a900460ff166105ed576040517f08c379a00000000000000000000000000000000000000000000000000000000081526004016105e49061120e565b60405180910390fd5b80600301544211610633576040517f08c379a000000000000000000000000000000000000000000000000000000000815260040161062a906111ee565b60405180910390fd5b80600201548160040154101561067e576040517f08c379a00000000000000000000000000000000000000000000000000000000081526004016106759061126e565b60405180910390fd5b6000816004015490506000826004018190555060008260050160146101000a81548160ff0219169083151502179055508160050160009054906101000a900473ffffffffffffffffffffffffffffffffffffffff1673ffffffffffffffffffffffffffffffffffffffff166108fc829081150290604051600060405180830381858888f19350505050158015610718573d6000803e3d6000fd5b507fd66662c0ded9e58fd31d5e44944bcfd07ffc15e6927ecc1382e7941cb7bd24c4838260405161074a92919061134c565b60405180910390a1505050565b600080600083815260200190815260200160002090508060050160009054906101000a900473ffffffffffffffffffffffffffffffffffffffff1673ffffffffffffffffffffffffffffffffffffffff163373ffffffffffffffffffffffffffffffffffffffff16146107ff576040517f08c379a00000000000000000000000000000000000000000000000000000000081526004016107f69061122e565b60405180910390fd5b8060050160149054906101000a900460ff16610850576040517f08c379a00000000000000000000000000000000000000000000000000000000081526004016108479061120e565b60405180910390fd5b60008160050160146101000a81548160ff0219169083151502179055507f403b6718db13878ac16c27decb08f09d3a10f116c7c25af575ff5bfbc11ae9e68260405161089c91906112ae565b60405180910390a15050565b60015481565b60008083116108f2576040517f08c379a00000000000000000000000000000000000000000000000000000000081526004016108e99061128e565b60405180910390fd5b60008211610935576040517f08c379a000000000000000000000000000000000000000000000000000000000815260040161092c906111ce565b60405180910390fd5b60006001600081548092919061094a9061155e565b919050559050600080600083815260200190815260200160002090508681600001908051906020019061097e929190610c78565b5085816001019080519060200190610997929190610c78565b5084816002018190555062015180846109b09190611448565b426109bb91906113f2565b816003018190555060008160040181905550338160050160006101000a81548173ffffffffffffffffffffffffffffffffffffffff021916908373ffffffffffffffffffffffffffffffffffffffff16021790555060018160050160146101000a81548160ff0219169083151502179055507f02fe3fddd43aad14ae5c30d5d694f19ecb065dfde85bb591b91e8af1448724d28288878460030154604051610a669493929190611300565b60405180910390a18192505050949350505050565b6060806000806000806000806000808a8152602001908152602001600020905080600001816001018260020154836003015484600401548560050160009054906101000a900473ffffffffffffffffffffffffffffffffffffffff168660050160149054906101000a900460ff16868054610af59061152c565b80601f0160208091040260200160405190810160405280929190818152602001828054610b219061152c565b8015610b6e5780601f10610b4357610100808354040283529160200191610b6e565b820191906000526020600020905b815481529060010190602001808311610b5157829003601f168201915b50505050509650858054610b819061152c565b80601f0160208091040260200160405190810160405280929190818152602001828054610bad9061152c565b8015610bfa5780601f10610bcf57610100808354040283529160200191610bfa565b820191906000526020600020905b815481529060010190602001808311610bdd57829003601f168201915b50505050509550975097509750975097509750975050919395979092949650565b600080600084815260200190815260200160002060060160008373ffffffffffffffffffffffffffffffffffffffff1673ffffffffffffffffffffffffffffffffffffffff16815260200190815260200160002054905092915050565b828054610c849061152c565b90600052602060002090601f016020900481019282610ca65760008555610ced565b82601f10610cbf57805160ff1916838001178555610ced565b82800160010185558215610ced579182015b82811115610cec578251825591602001919060010190610cd1565b5b509050610cfa9190610cfe565b5090565b5b80821115610d17576000816000905550600101610cff565b5090565b6000610d2e610d29846113a6565b611375565b905082815260208101848484011115610d4657600080fd5b610d518482856114ea565b509392505050565b600081359050610d6881611645565b92915050565b600082601f830112610d7f57600080fd5b8135610d8f848260208601610d1b565b91505092915050565b600081359050610da78161165c565b92915050565b60008060008060808587031215610dc357600080fd5b600085013567ffffffffffffffff811115610ddd57600080fd5b610de987828801610d6e565b945050602085013567ffffffffffffffff811115610e0657600080fd5b610e1287828801610d6e565b9350506040610e2387828801610d98565b9250506060610e3487828801610d98565b91505092959194509250565b600060208284031215610e5257600080fd5b6000610e6084828501610d98565b91505092915050565b60008060408385031215610e7c57600080fd5b6000610e8a85828601610d98565b9250506020610e9b85828601610d59565b9150509250929050565b610eae816114a2565b82525050565b610ebd816114b4565b82525050565b6000610ece826113d6565b610ed881856113e1565b9350610ee88185602086016114f9565b610ef181611634565b840191505092915050565b6000610f096020836113e1565b91507f4f6e6c792063616d706169676e206f776e65722063616e2077697468647261776000830152602082019050919050565b6000610f49601f836113e1565b91507f4475726174696f6e206d7573742062652067726561746572207468616e2030006000830152602082019050919050565b6000610f89601a836113e1565b91507f43616d706169676e20686173206e6f7420656e646564207965740000000000006000830152602082019050919050565b6000610fc96016836113e1565b91507f43616d706169676e206973206e6f7420616374697665000000000000000000006000830152602082019050919050565b6000611009601e836113e1565b91507f4f6e6c792063616d706169676e206f776e65722063616e2063616e63656c00006000830152602082019050919050565b60006110496023836113e1565b91507f436f6e747269627574696f6e206d75737420626520677265617465722074686160008301527f6e203000000000000000000000000000000000000000000000000000000000006020830152604082019050919050565b60006110af6010836113e1565b91507f476f616c206e6f742072656163686564000000000000000000000000000000006000830152602082019050919050565b60006110ef601b836113e1565b91507f476f616c206d7573742062652067726561746572207468616e203000000000006000830152602082019050919050565b61112b816114e0565b82525050565b600060e082019050818103600083015261114b818a610ec3565b9050818103602083015261115f8189610ec3565b905061116e6040830188611122565b61117b6060830187611122565b6111886080830186611122565b61119560a0830185610ea5565b6111a260c0830184610eb4565b98975050505050505050565b600060208201905081810360008301526111c781610efc565b9050919050565b600060208201905081810360008301526111e781610f3c565b9050919050565b6000602082019050818103600083015261120781610f7c565b9050919050565b6000602082019050818103600083015261122781610fbc565b9050919050565b6000602082019050818103600083015261124781610ffc565b9050919050565b600060208201905081810360008301526112678161103c565b9050919050565b60006020820190508181036000830152611287816110a2565b9050919050565b600060208201905081810360008301526112a7816110e2565b9050919050565b60006020820190506112c36000830184611122565b92915050565b60006060820190506112de6000830186611122565b6112eb6020830185610ea5565b6112f86040830184611122565b949350505050565b60006080820190506113156000830187611122565b81810360208301526113278186610ec3565b90506113366040830185611122565b6113436060830184611122565b95945050505050565b60006040820190506113616000830185611122565b61136e6020830184611122565b9392505050565b6000604051905081810181811067ffffffffffffffff8211171561139c5761139b611605565b5b8060405250919050565b600067ffffffffffffffff8211156113c1576113c0611605565b5b601f19601f8301169050602081019050919050565b600081519050919050565b600082825260208201905092915050565b60006113fd826114e0565b9150611408836114e0565b9250827fffffffffffffffffffffffffffffffffffffffffffffffffffffffffffffffff0382111561143d5761143c6115a7565b5b828201905092915050565b6000611453826114e0565b915061145e836114e0565b9250817fffffffffffffffffffffffffffffffffffffffffffffffffffffffffffffffff0483118215151615611497576114966115a7565b5b828202905092915050565b60006114ad826114c0565b9050919050565b60008115159050919050565b600073ffffffffffffffffffffffffffffffffffffffff82169050919050565b6000819050919050565b82818337600083830152505050565b60005b838110156115175780820151818401526020810190506114fc565b83811115611526576000848401525b50505050565b6000600282049050600182168061154457607f821691505b60208210811415611558576115576115d6565b5b50919050565b6000611569826114e0565b91507fffffffffffffffffffffffffffffffffffffffffffffffffffffffffffffffff82141561159c5761159b6115a7565b5b600182019050919050565b7f4e487b7100000000000000000000000000000000000000000000000000000000600052601160045260246000fd5b7f4e487b7100000000000000000000000000000000000000000000000000000000600052602260045260246000fd5b7f4e487b7100000000000000000000000000000000000000000000000000000000600052604160045260246000fd5b6000601f19601f8301169050919050565b61164e816114a2565b811461165957600080fd5b50565b611665816114e0565b811461167057600080fd5b5056fea2646970667358221220af188bcfe9fa091cdd842970fac0fc74b10ad20006c92072966ac6d8f97d662a64736f6c63430008000033",
  "immutableReferences": {},
  "source": "// SPDX-License-Identifier: MIT\r\npragma solidity ^0.8.0;\r\n\r\ncontract Crowdfunding {\r\n    struct Campaign {\r\n        string name;\r\n        string description;\r\n        uint256 goal;\r\n        uint256 deadline;\r\n        uint256 amountCollected;\r\n        address owner;\r\n        bool active;\r\n        mapping(address => uint256) contributions;\r\n    }\r\n\r\n    mapping(uint256 => Campaign) public campaigns;\r\n    uint256 public campaignCount;\r\n    \r\n    event CampaignCreated(uint256 campaignId, string name, uint256 goal, uint256 deadline);\r\n    event ContributionReceived(uint256 campaignId, address contributor, uint256 amount);\r\n    event FundsWithdrawn(uint256 campaignId, uint256 amount);\r\n    event CampaignCancelled(uint256 campaignId);\r\n\r\n    function createCampaign(\r\n        string memory _name,\r\n        string memory _description, \r\n        uint256 _goal,\r\n        uint256 _durationInDays\r\n    ) public returns (uint256) {\r\n        require(_goal > 0, \"Goal must be greater than 0\");\r\n        require(_durationInDays > 0, \"Duration must be greater than 0\");\r\n        \r\n        uint256 campaignId = campaignCount++;\r\n        Campaign storage campaign = campaigns[campaignId];\r\n        \r\n        campaign.name = _name;\r\n        campaign.description = _description;\r\n        campaign.goal = _goal;\r\n        campaign.deadline = block.timestamp + (_durationInDays * 1 days);\r\n        campaign.amountCollected = 0;\r\n        campaign.owner = msg.sender;\r\n        campaign.active = true;\r\n\r\n        emit CampaignCreated(campaignId, _name, _goal, campaign.deadline);\r\n        return campaignId;\r\n    }\r\n\r\n    function contributeToCampaign(uint256 _campaignId) public payable {\r\n        Campaign storage campaign = campaigns[_campaignId];\r\n        require(campaign.active, \"Campaign is not active\");\r\n        require(msg.value > 0, \"Contribution must be greater than 0\");\r\n        \r\n        campaign.amountCollected += msg.value;\r\n        campaign.contributions[msg.sender] += msg.value;\r\n        \r\n        emit ContributionReceived(_campaignId, msg.sender, msg.value);\r\n    }\r\n\r\n    function withdrawFunds(uint256 _campaignId) public {\r\n        Campaign storage campaign = campaigns[_campaignId];\r\n        \r\n        require(msg.sender == campaign.owner, \"Only campaign owner can withdraw\");\r\n        require(campaign.active, \"Campaign is not active\");\r\n        require(block.timestamp > campaign.deadline, \"Campaign has not ended yet\");\r\n        require(campaign.amountCollected >= campaign.goal, \"Goal not reached\");\r\n\r\n        uint256 amount = campaign.amountCollected;\r\n        campaign.amountCollected = 0;\r\n        campaign.active = false;\r\n        \r\n        payable(campaign.owner).transfer(amount);\r\n        emit FundsWithdrawn(_campaignId, amount);\r\n    }\r\n\r\n    function getCampaignDetails(uint256 _campaignId) public view returns (\r\n        string memory name,\r\n        string memory description,\r\n        uint256 goal,\r\n        uint256 deadline,\r\n        uint256 amountCollected,\r\n        address owner,\r\n        bool active\r\n    ) {\r\n        Campaign storage campaign = campaigns[_campaignId];\r\n        return (\r\n            campaign.name,\r\n            campaign.description,\r\n            campaign.goal,\r\n            campaign.deadline,\r\n            campaign.amountCollected,\r\n            campaign.owner,\r\n            campaign.active\r\n        );\r\n    }\r\n\r\n    function getContribution(uint256 _campaignId, address _contributor) public view returns (uint256) {\r\n        return campaigns[_campaignId].contributions[_contributor];\r\n    }\r\n\r\n    function cancelCampaign(uint256 _campaignId) public {\r\n        Campaign storage campaign = campaigns[_campaignId];\r\n        \r\n        require(msg.sender == campaign.owner, \"Only campaign owner can cancel\");\r\n        require(campaign.active, \"Campaign is not active\");\r\n        \r\n        campaign.active = false;\r\n        emit CampaignCancelled(_campaignId);\r\n    }\r\n}\r\n\r\n",
  "sourcePath": "E:\\chanda\\chanda\\contracts\\funding.sol",
  "compiler": {
    "name": "solc",
    "version": "0.8.0+commit.c7dfd78e.Emscripten.clang"
  },
  "schemaVersion": "3.4.16",
  "updatedAt": "2024-12-23T11:09:26.933Z",
  "networkType": "ethereum",
  "devdoc": {
    "kind": "dev",
    "methods": {},
    "version": 1
  },
  "userdoc": {
    "kind": "user",
    "methods": {},
    "version": 1
  }
}